{
  "_format": "hh-sol-artifact-1",
  "contractName": "TokenGeneration",
  "sourceName": "contracts/TokenGeneration.sol",
  "abi": [
    {
      "inputs": [
        {
          "internalType": "address",
          "name": "spender",
          "type": "address"
        },
        {
          "internalType": "uint256",
          "name": "allowance",
          "type": "uint256"
        },
        {
          "internalType": "uint256",
          "name": "needed",
          "type": "uint256"
        }
      ],
      "name": "ERC20InsufficientAllowance",
      "type": "error"
    },
    {
      "inputs": [
        {
          "internalType": "address",
          "name": "sender",
          "type": "address"
        },
        {
          "internalType": "uint256",
          "name": "balance",
          "type": "uint256"
        },
        {
          "internalType": "uint256",
          "name": "needed",
          "type": "uint256"
        }
      ],
      "name": "ERC20InsufficientBalance",
      "type": "error"
    },
    {
      "inputs": [
        {
          "internalType": "address",
          "name": "approver",
          "type": "address"
        }
      ],
      "name": "ERC20InvalidApprover",
      "type": "error"
    },
    {
      "inputs": [
        {
          "internalType": "address",
          "name": "receiver",
          "type": "address"
        }
      ],
      "name": "ERC20InvalidReceiver",
      "type": "error"
    },
    {
      "inputs": [
        {
          "internalType": "address",
          "name": "sender",
          "type": "address"
        }
      ],
      "name": "ERC20InvalidSender",
      "type": "error"
    },
    {
      "inputs": [
        {
          "internalType": "address",
          "name": "spender",
          "type": "address"
        }
      ],
      "name": "ERC20InvalidSpender",
      "type": "error"
    },
    {
      "inputs": [
        {
          "internalType": "address",
          "name": "owner",
          "type": "address"
        }
      ],
      "name": "OwnableInvalidOwner",
      "type": "error"
    },
    {
      "inputs": [
        {
          "internalType": "address",
          "name": "account",
          "type": "address"
        }
      ],
      "name": "OwnableUnauthorizedAccount",
      "type": "error"
    },
    {
      "anonymous": false,
      "inputs": [
        {
          "indexed": true,
          "internalType": "address",
          "name": "owner",
          "type": "address"
        },
        {
          "indexed": true,
          "internalType": "address",
          "name": "spender",
          "type": "address"
        },
        {
          "indexed": false,
          "internalType": "uint256",
          "name": "value",
          "type": "uint256"
        }
      ],
      "name": "Approval",
      "type": "event"
    },
    {
      "anonymous": false,
      "inputs": [
        {
          "indexed": true,
          "internalType": "address",
          "name": "previousOwner",
          "type": "address"
        },
        {
          "indexed": true,
          "internalType": "address",
          "name": "newOwner",
          "type": "address"
        }
      ],
      "name": "OwnershipTransferred",
      "type": "event"
    },
    {
      "anonymous": false,
      "inputs": [
        {
          "indexed": true,
          "internalType": "address",
          "name": "from",
          "type": "address"
        },
        {
          "indexed": true,
          "internalType": "address",
          "name": "to",
          "type": "address"
        },
        {
          "indexed": false,
          "internalType": "uint256",
          "name": "value",
          "type": "uint256"
        }
      ],
      "name": "Transfer",
      "type": "event"
    },
    {
      "inputs": [
        {
          "internalType": "address",
          "name": "owner",
          "type": "address"
        },
        {
          "internalType": "address",
          "name": "spender",
          "type": "address"
        }
      ],
      "name": "allowance",
      "outputs": [
        {
          "internalType": "uint256",
          "name": "",
          "type": "uint256"
        }
      ],
      "stateMutability": "view",
      "type": "function"
    },
    {
      "inputs": [
        {
          "internalType": "address",
          "name": "spender",
          "type": "address"
        },
        {
          "internalType": "uint256",
          "name": "value",
          "type": "uint256"
        }
      ],
      "name": "approve",
      "outputs": [
        {
          "internalType": "bool",
          "name": "",
          "type": "bool"
        }
      ],
      "stateMutability": "nonpayable",
      "type": "function"
    },
    {
      "inputs": [
        {
          "internalType": "address",
          "name": "account",
          "type": "address"
        }
      ],
      "name": "balanceOf",
      "outputs": [
        {
          "internalType": "uint256",
          "name": "",
          "type": "uint256"
        }
      ],
      "stateMutability": "view",
      "type": "function"
    },
    {
      "inputs": [],
      "name": "decimals",
      "outputs": [
        {
          "internalType": "uint8",
          "name": "",
          "type": "uint8"
        }
      ],
      "stateMutability": "view",
      "type": "function"
    },
    {
      "inputs": [
        {
          "internalType": "address",
          "name": "to",
          "type": "address"
        },
        {
          "internalType": "uint256",
          "name": "amount",
          "type": "uint256"
        }
      ],
      "name": "mint",
      "outputs": [],
      "stateMutability": "nonpayable",
      "type": "function"
    },
    {
      "inputs": [],
      "name": "name",
      "outputs": [
        {
          "internalType": "string",
          "name": "",
          "type": "string"
        }
      ],
      "stateMutability": "view",
      "type": "function"
    },
    {
      "inputs": [],
      "name": "owner",
      "outputs": [
        {
          "internalType": "address",
          "name": "",
          "type": "address"
        }
      ],
      "stateMutability": "view",
      "type": "function"
    },
    {
      "inputs": [],
      "name": "pricePerToken",
      "outputs": [
        {
          "internalType": "uint256",
          "name": "",
          "type": "uint256"
        }
      ],
      "stateMutability": "view",
      "type": "function"
    },
    {
      "inputs": [],
      "name": "renounceOwnership",
      "outputs": [],
      "stateMutability": "nonpayable",
      "type": "function"
    },
    {
      "inputs": [],
      "name": "symbol",
      "outputs": [
        {
          "internalType": "string",
          "name": "",
          "type": "string"
        }
      ],
      "stateMutability": "view",
      "type": "function"
    },
    {
      "inputs": [],
      "name": "totalSupply",
      "outputs": [
        {
          "internalType": "uint256",
          "name": "",
          "type": "uint256"
        }
      ],
      "stateMutability": "view",
      "type": "function"
    },
    {
      "inputs": [
        {
          "internalType": "address",
          "name": "to",
          "type": "address"
        },
        {
          "internalType": "uint256",
          "name": "value",
          "type": "uint256"
        }
      ],
      "name": "transfer",
      "outputs": [
        {
          "internalType": "bool",
          "name": "",
          "type": "bool"
        }
      ],
      "stateMutability": "nonpayable",
      "type": "function"
    },
    {
      "inputs": [
        {
          "internalType": "address",
          "name": "from",
          "type": "address"
        },
        {
          "internalType": "address",
          "name": "to",
          "type": "address"
        },
        {
          "internalType": "uint256",
          "name": "value",
          "type": "uint256"
        }
      ],
      "name": "transferFrom",
      "outputs": [
        {
          "internalType": "bool",
          "name": "",
          "type": "bool"
        }
      ],
      "stateMutability": "nonpayable",
      "type": "function"
    },
    {
      "inputs": [
        {
          "internalType": "uint256",
          "name": "initialSupply",
          "type": "uint256"
        },
        {
          "internalType": "uint256",
          "name": "_pricePerToken",
          "type": "uint256"
        }
      ],
      "stateMutability": "nonpayable",
      "type": "constructor"
    },
    {
      "inputs": [
        {
          "internalType": "address",
          "name": "newOwner",
          "type": "address"
        }
      ],
      "name": "transferOwnership",
      "outputs": [],
      "stateMutability": "nonpayable",
      "type": "function"
    }
  ],
  "bytecode": "0x608060405234801561001057600080fd5b50604051611b70380380611b708339818101604052810190610032919061050f565b336040518060400160405280600d81526020017f476f726469616e20546f6b656e000000000000000000000000000000000000008152506040518060400160405280600381526020017f474f52000000000000000000000000000000000000000000000000000000000081525081600390816100ae9190610795565b5080600490816100be9190610795565b505050600073ffffffffffffffffffffffffffffffffffffffff168173ffffffffffffffffffffffffffffffffffffffff16036101335760006040517f1e4fbdf700000000000000000000000000000000000000000000000000000000815260040161012a91906108a8565b60405180910390fd5b6101428161016160201b60201c565b508060068190555061015a338361022760201b60201c565b5050610987565b6000600560009054906101000a900473ffffffffffffffffffffffffffffffffffffffff16905081600560006101000a81548173ffffffffffffffffffffffffffffffffffffffff021916908373ffffffffffffffffffffffffffffffffffffffff1602179055508173ffffffffffffffffffffffffffffffffffffffff168173ffffffffffffffffffffffffffffffffffffffff167f8be0079c531659141344cd1fd0a4f28419497f9722a3daafe3b4186f6b6457e060405160405180910390a35050565b600073ffffffffffffffffffffffffffffffffffffffff168273ffffffffffffffffffffffffffffffffffffffff16036102995760006040517fec442f0500000000000000000000000000000000000000000000000000000000815260040161029091906108a8565b60405180910390fd5b6102ab600083836102af60201b60201c565b5050565b600073ffffffffffffffffffffffffffffffffffffffff168373ffffffffffffffffffffffffffffffffffffffff16036103015780600260008282546102f591906108f2565b925050819055506103d4565b60008060008573ffffffffffffffffffffffffffffffffffffffff1673ffffffffffffffffffffffffffffffffffffffff1681526020019081526020016000205490508181101561038d578381836040517fe450d38c00000000000000000000000000000000000000000000000000000000815260040161038493929190610935565b60405180910390fd5b8181036000808673ffffffffffffffffffffffffffffffffffffffff1673ffffffffffffffffffffffffffffffffffffffff16815260200190815260200160002081905550505b600073ffffffffffffffffffffffffffffffffffffffff168273ffffffffffffffffffffffffffffffffffffffff160361041d578060026000828254039250508190555061046a565b806000808473ffffffffffffffffffffffffffffffffffffffff1673ffffffffffffffffffffffffffffffffffffffff168152602001908152602001600020600082825401925050819055505b8173ffffffffffffffffffffffffffffffffffffffff168373ffffffffffffffffffffffffffffffffffffffff167fddf252ad1be2c89b69c2b068fc378daa952ba7f163c4a11628f55a4df523b3ef836040516104c7919061096c565b60405180910390a3505050565b600080fd5b6000819050919050565b6104ec816104d9565b81146104f757600080fd5b50565b600081519050610509816104e3565b92915050565b60008060408385031215610526576105256104d4565b5b6000610534858286016104fa565b9250506020610545858286016104fa565b9150509250929050565b600081519050919050565b7f4e487b7100000000000000000000000000000000000000000000000000000000600052604160045260246000fd5b7f4e487b7100000000000000000000000000000000000000000000000000000000600052602260045260246000fd5b600060028204905060018216806105d057607f821691505b6020821081036105e3576105e2610589565b5b50919050565b60008190508160005260206000209050919050565b60006020601f8301049050919050565b600082821b905092915050565b60006008830261064b7fffffffffffffffffffffffffffffffffffffffffffffffffffffffffffffffff8261060e565b610655868361060e565b95508019841693508086168417925050509392505050565b6000819050919050565b600061069261068d610688846104d9565b61066d565b6104d9565b9050919050565b6000819050919050565b6106ac83610677565b6106c06106b882610699565b84845461061b565b825550505050565b600090565b6106d56106c8565b6106e08184846106a3565b505050565b5b81811015610704576106f96000826106cd565b6001810190506106e6565b5050565b601f8211156107495761071a816105e9565b610723846105fe565b81016020851015610732578190505b61074661073e856105fe565b8301826106e5565b50505b505050565b600082821c905092915050565b600061076c6000198460080261074e565b1980831691505092915050565b6000610785838361075b565b9150826002028217905092915050565b61079e8261054f565b67ffffffffffffffff8111156107b7576107b661055a565b5b6107c182546105b8565b6107cc828285610708565b600060209050601f8311600181146107ff57600084156107ed578287015190505b6107f78582610779565b86555061085f565b601f19841661080d866105e9565b60005b8281101561083557848901518255600182019150602085019450602081019050610810565b86831015610852578489015161084e601f89168261075b565b8355505b6001600288020188555050505b505050505050565b600073ffffffffffffffffffffffffffffffffffffffff82169050919050565b600061089282610867565b9050919050565b6108a281610887565b82525050565b60006020820190506108bd6000830184610899565b92915050565b7f4e487b7100000000000000000000000000000000000000000000000000000000600052601160045260246000fd5b60006108fd826104d9565b9150610908836104d9565b92508282019050808211156109205761091f6108c3565b5b92915050565b61092f816104d9565b82525050565b600060608201905061094a6000830186610899565b6109576020830185610926565b6109646040830184610926565b949350505050565b60006020820190506109816000830184610926565b92915050565b6111da806109966000396000f3fe608060405234801561001057600080fd5b50600436106100ea5760003560e01c8063715018a61161008c57806395d89b411161006657806395d89b411461023b578063a9059cbb14610259578063dd62ed3e14610289578063f2fde38b146102b9576100ea565b8063715018a6146101f55780637b1b1de6146101ff5780638da5cb5b1461021d576100ea565b806323b872dd116100c857806323b872dd1461015b578063313ce5671461018b57806340c10f19146101a957806370a08231146101c5576100ea565b806306fdde03146100ef578063095ea7b31461010d57806318160ddd1461013d575b600080fd5b6100f76102d5565b6040516101049190610e2e565b60405180910390f35b61012760048036038101906101229190610ee9565b610367565b6040516101349190610f44565b60405180910390f35b61014561038a565b6040516101529190610f6e565b60405180910390f35b61017560048036038101906101709190610f89565b610394565b6040516101829190610f44565b60405180910390f35b6101936103c3565b6040516101a09190610ff8565b60405180910390f35b6101c360048036038101906101be9190610ee9565b6103cc565b005b6101df60048036038101906101da9190611013565b6103e2565b6040516101ec9190610f6e565b60405180910390f35b6101fd61042a565b005b61020761043e565b6040516102149190610f6e565b60405180910390f35b610225610444565b604051610232919061104f565b60405180910390f35b61024361046e565b6040516102509190610e2e565b60405180910390f35b610273600480360381019061026e9190610ee9565b610500565b6040516102809190610f44565b60405180910390f35b6102a3600480360381019061029e919061106a565b610523565b6040516102b09190610f6e565b60405180910390f35b6102d360048036038101906102ce9190611013565b6105aa565b005b6060600380546102e4906110d9565b80601f0160208091040260200160405190810160405280929190818152602001828054610310906110d9565b801561035d5780601f106103325761010080835404028352916020019161035d565b820191906000526020600020905b81548152906001019060200180831161034057829003601f168201915b5050505050905090565b600080610372610630565b905061037f818585610638565b600191505092915050565b6000600254905090565b60008061039f610630565b90506103ac85828561064a565b6103b78585856106df565b60019150509392505050565b60006012905090565b6103d46107d3565b6103de828261085a565b5050565b60008060008373ffffffffffffffffffffffffffffffffffffffff1673ffffffffffffffffffffffffffffffffffffffff168152602001908152602001600020549050919050565b6104326107d3565b61043c60006108dc565b565b60065481565b6000600560009054906101000a900473ffffffffffffffffffffffffffffffffffffffff16905090565b60606004805461047d906110d9565b80601f01602080910402602001604051908101604052809291908181526020018280546104a9906110d9565b80156104f65780601f106104cb576101008083540402835291602001916104f6565b820191906000526020600020905b8154815290600101906020018083116104d957829003601f168201915b5050505050905090565b60008061050b610630565b90506105188185856106df565b600191505092915050565b6000600160008473ffffffffffffffffffffffffffffffffffffffff1673ffffffffffffffffffffffffffffffffffffffff16815260200190815260200160002060008373ffffffffffffffffffffffffffffffffffffffff1673ffffffffffffffffffffffffffffffffffffffff16815260200190815260200160002054905092915050565b6105b26107d3565b600073ffffffffffffffffffffffffffffffffffffffff168173ffffffffffffffffffffffffffffffffffffffff16036106245760006040517f1e4fbdf700000000000000000000000000000000000000000000000000000000815260040161061b919061104f565b60405180910390fd5b61062d816108dc565b50565b600033905090565b61064583838360016109a2565b505050565b60006106568484610523565b90507fffffffffffffffffffffffffffffffffffffffffffffffffffffffffffffffff8110156106d957818110156106c9578281836040517ffb8f41b20000000000000000000000000000000000000000000000000000000081526004016106c09392919061110a565b60405180910390fd5b6106d8848484840360006109a2565b5b50505050565b600073ffffffffffffffffffffffffffffffffffffffff168373ffffffffffffffffffffffffffffffffffffffff16036107515760006040517f96c6fd1e000000000000000000000000000000000000000000000000000000008152600401610748919061104f565b60405180910390fd5b600073ffffffffffffffffffffffffffffffffffffffff168273ffffffffffffffffffffffffffffffffffffffff16036107c35760006040517fec442f050000000000000000000000000000000000000000000000000000000081526004016107ba919061104f565b60405180910390fd5b6107ce838383610b79565b505050565b6107db610630565b73ffffffffffffffffffffffffffffffffffffffff166107f9610444565b73ffffffffffffffffffffffffffffffffffffffff16146108585761081c610630565b6040517f118cdaa700000000000000000000000000000000000000000000000000000000815260040161084f919061104f565b60405180910390fd5b565b600073ffffffffffffffffffffffffffffffffffffffff168273ffffffffffffffffffffffffffffffffffffffff16036108cc5760006040517fec442f050000000000000000000000000000000000000000000000000000000081526004016108c3919061104f565b60405180910390fd5b6108d860008383610b79565b5050565b6000600560009054906101000a900473ffffffffffffffffffffffffffffffffffffffff16905081600560006101000a81548173ffffffffffffffffffffffffffffffffffffffff021916908373ffffffffffffffffffffffffffffffffffffffff1602179055508173ffffffffffffffffffffffffffffffffffffffff168173ffffffffffffffffffffffffffffffffffffffff167f8be0079c531659141344cd1fd0a4f28419497f9722a3daafe3b4186f6b6457e060405160405180910390a35050565b600073ffffffffffffffffffffffffffffffffffffffff168473ffffffffffffffffffffffffffffffffffffffff1603610a145760006040517fe602df05000000000000000000000000000000000000000000000000000000008152600401610a0b919061104f565b60405180910390fd5b600073ffffffffffffffffffffffffffffffffffffffff168373ffffffffffffffffffffffffffffffffffffffff1603610a865760006040517f94280d62000000000000000000000000000000000000000000000000000000008152600401610a7d919061104f565b60405180910390fd5b81600160008673ffffffffffffffffffffffffffffffffffffffff1673ffffffffffffffffffffffffffffffffffffffff16815260200190815260200160002060008573ffffffffffffffffffffffffffffffffffffffff1673ffffffffffffffffffffffffffffffffffffffff168152602001908152602001600020819055508015610b73578273ffffffffffffffffffffffffffffffffffffffff168473ffffffffffffffffffffffffffffffffffffffff167f8c5be1e5ebec7d5bd14f71427d1e84f3dd0314c0f7b2291e5b200ac8c7c3b92584604051610b6a9190610f6e565b60405180910390a35b50505050565b600073ffffffffffffffffffffffffffffffffffffffff168373ffffffffffffffffffffffffffffffffffffffff1603610bcb578060026000828254610bbf9190611170565b92505081905550610c9e565b60008060008573ffffffffffffffffffffffffffffffffffffffff1673ffffffffffffffffffffffffffffffffffffffff16815260200190815260200160002054905081811015610c57578381836040517fe450d38c000000000000000000000000000000000000000000000000000000008152600401610c4e9392919061110a565b60405180910390fd5b8181036000808673ffffffffffffffffffffffffffffffffffffffff1673ffffffffffffffffffffffffffffffffffffffff16815260200190815260200160002081905550505b600073ffffffffffffffffffffffffffffffffffffffff168273ffffffffffffffffffffffffffffffffffffffff1603610ce75780600260008282540392505081905550610d34565b806000808473ffffffffffffffffffffffffffffffffffffffff1673ffffffffffffffffffffffffffffffffffffffff168152602001908152602001600020600082825401925050819055505b8173ffffffffffffffffffffffffffffffffffffffff168373ffffffffffffffffffffffffffffffffffffffff167fddf252ad1be2c89b69c2b068fc378daa952ba7f163c4a11628f55a4df523b3ef83604051610d919190610f6e565b60405180910390a3505050565b600081519050919050565b600082825260208201905092915050565b60005b83811015610dd8578082015181840152602081019050610dbd565b60008484015250505050565b6000601f19601f8301169050919050565b6000610e0082610d9e565b610e0a8185610da9565b9350610e1a818560208601610dba565b610e2381610de4565b840191505092915050565b60006020820190508181036000830152610e488184610df5565b905092915050565b600080fd5b600073ffffffffffffffffffffffffffffffffffffffff82169050919050565b6000610e8082610e55565b9050919050565b610e9081610e75565b8114610e9b57600080fd5b50565b600081359050610ead81610e87565b92915050565b6000819050919050565b610ec681610eb3565b8114610ed157600080fd5b50565b600081359050610ee381610ebd565b92915050565b60008060408385031215610f0057610eff610e50565b5b6000610f0e85828601610e9e565b9250506020610f1f85828601610ed4565b9150509250929050565b60008115159050919050565b610f3e81610f29565b82525050565b6000602082019050610f596000830184610f35565b92915050565b610f6881610eb3565b82525050565b6000602082019050610f836000830184610f5f565b92915050565b600080600060608486031215610fa257610fa1610e50565b5b6000610fb086828701610e9e565b9350506020610fc186828701610e9e565b9250506040610fd286828701610ed4565b9150509250925092565b600060ff82169050919050565b610ff281610fdc565b82525050565b600060208201905061100d6000830184610fe9565b92915050565b60006020828403121561102957611028610e50565b5b600061103784828501610e9e565b91505092915050565b61104981610e75565b82525050565b60006020820190506110646000830184611040565b92915050565b6000806040838503121561108157611080610e50565b5b600061108f85828601610e9e565b92505060206110a085828601610e9e565b9150509250929050565b7f4e487b7100000000000000000000000000000000000000000000000000000000600052602260045260246000fd5b600060028204905060018216806110f157607f821691505b602082108103611104576111036110aa565b5b50919050565b600060608201905061111f6000830186611040565b61112c6020830185610f5f565b6111396040830184610f5f565b949350505050565b7f4e487b7100000000000000000000000000000000000000000000000000000000600052601160045260246000fd5b600061117b82610eb3565b915061118683610eb3565b925082820190508082111561119e5761119d611141565b5b9291505056fea264697066735822122065a2cd28f45d257e2b397232849010691e2d1a165d0380b07460c39ba5c201df64736f6c634300081c0033",
  "linkReferences": {},
  "deployedLinkReferences": {}
}